{
  "_format": "hh-sol-artifact-1",
  "contractName": "StakeHunt",
  "sourceName": "contracts/StakeHunt.sol",
  "abi": [
    {
      "anonymous": false,
      "inputs": [
        {
          "indexed": true,
          "internalType": "address",
          "name": "user",
          "type": "address"
        },
        {
          "indexed": false,
          "internalType": "uint256",
          "name": "amount",
          "type": "uint256"
        }
      ],
      "name": "Staked",
      "type": "event"
    },
    {
      "inputs": [],
      "name": "stake",
      "outputs": [],
      "stateMutability": "payable",
      "type": "function"
    },
    {
      "inputs": [
        {
          "internalType": "address",
          "name": "",
          "type": "address"
        }
      ],
      "name": "stakes",
      "outputs": [
        {
          "internalType": "uint256",
          "name": "",
          "type": "uint256"
        }
      ],
      "stateMutability": "view",
      "type": "function"
    },
    {
      "inputs": [],
      "name": "totalStakes",
      "outputs": [
        {
          "internalType": "uint256",
          "name": "",
          "type": "uint256"
        }
      ],
      "stateMutability": "view",
      "type": "function"
    }
  ],
  "bytecode": "0x6080604052348015600f57600080fd5b506103ca8061001f6000396000f3fe6080604052600436106100345760003560e01c806316934fc4146100395780633a4b66f114610076578063bf9befb114610080575b600080fd5b34801561004557600080fd5b50610060600480360381019061005b919061022d565b6100ab565b60405161006d9190610273565b60405180910390f35b61007e6100c3565b005b34801561008c57600080fd5b506100956101c4565b6040516100a29190610273565b60405180910390f35b60006020528060005260406000206000915090505481565b60003411610106576040517f08c379a00000000000000000000000000000000000000000000000000000000081526004016100fd90610311565b60405180910390fd5b346000803373ffffffffffffffffffffffffffffffffffffffff1673ffffffffffffffffffffffffffffffffffffffff16815260200190815260200160002060008282546101549190610360565b92505081905550346001600082825461016d9190610360565b925050819055503373ffffffffffffffffffffffffffffffffffffffff167f9e71bc8eea02a63969f509818f2dafb9254532904319f9dbda79b67bd34a5f3d346040516101ba9190610273565b60405180910390a2565b60015481565b600080fd5b600073ffffffffffffffffffffffffffffffffffffffff82169050919050565b60006101fa826101cf565b9050919050565b61020a816101ef565b811461021557600080fd5b50565b60008135905061022781610201565b92915050565b600060208284031215610243576102426101ca565b5b600061025184828501610218565b91505092915050565b6000819050919050565b61026d8161025a565b82525050565b60006020820190506102886000830184610264565b92915050565b600082825260208201905092915050565b7f416d6f756e74206d7573742062652067726561746572207468616e207a65726f60008201527f2e00000000000000000000000000000000000000000000000000000000000000602082015250565b60006102fb60218361028e565b91506103068261029f565b604082019050919050565b6000602082019050818103600083015261032a816102ee565b9050919050565b7f4e487b7100000000000000000000000000000000000000000000000000000000600052601160045260246000fd5b600061036b8261025a565b91506103768361025a565b925082820190508082111561038e5761038d610331565b5b9291505056fea2646970667358221220467787edc3f2584a4e261272b374a6307c59e53a70ef64de87ee28da8becb63a64736f6c634300081b0033",
  "linkReferences": {},
  "deployedLinkReferences": {}
}